{
  "address": "0x5FbDB2315678afecb367f032d93F642f64180aa3",
  "abi": [
    {
      "inputs": [],
      "stateMutability": "nonpayable",
      "type": "constructor"
    },
    {
      "anonymous": false,
      "inputs": [
        {
          "indexed": false,
          "internalType": "address",
          "name": "_address",
          "type": "address"
        },
        {
          "indexed": false,
          "internalType": "uint256",
          "name": "time",
          "type": "uint256"
        }
      ],
      "name": "DelistToken",
      "type": "event"
    },
    {
      "anonymous": false,
      "inputs": [
        {
          "indexed": false,
          "internalType": "address",
          "name": "_address",
          "type": "address"
        },
        {
          "indexed": false,
          "internalType": "uint256",
          "name": "time",
          "type": "uint256"
        }
      ],
      "name": "ListToken",
      "type": "event"
    },
    {
      "inputs": [
        {
          "internalType": "address",
          "name": "_addr",
          "type": "address"
        }
      ],
      "name": "get",
      "outputs": [
        {
          "internalType": "bool",
          "name": "",
          "type": "bool"
        }
      ],
      "stateMutability": "view",
      "type": "function"
    },
    {
      "inputs": [],
      "name": "getListings",
      "outputs": [
        {
          "components": [
            {
              "internalType": "string",
              "name": "name",
              "type": "string"
            },
            {
              "internalType": "string",
              "name": "symbol",
              "type": "string"
            },
            {
              "internalType": "address",
              "name": "tokenAddress",
              "type": "address"
            }
          ],
          "internalType": "struct WhiteList.Token[]",
          "name": "",
          "type": "tuple[]"
        }
      ],
      "stateMutability": "view",
      "type": "function"
    },
    {
      "inputs": [
        {
          "internalType": "string",
          "name": "name",
          "type": "string"
        },
        {
          "internalType": "string",
          "name": "symbol",
          "type": "string"
        },
        {
          "internalType": "address",
          "name": "_addr",
          "type": "address"
        }
      ],
      "name": "listToken",
      "outputs": [],
      "stateMutability": "nonpayable",
      "type": "function"
    },
    {
      "inputs": [
        {
          "internalType": "address",
          "name": "_addr",
          "type": "address"
        }
      ],
      "name": "removeToken",
      "outputs": [],
      "stateMutability": "nonpayable",
      "type": "function"
    },
    {
      "inputs": [
        {
          "internalType": "address",
          "name": "",
          "type": "address"
        }
      ],
      "name": "whiteList",
      "outputs": [
        {
          "internalType": "bool",
          "name": "",
          "type": "bool"
        }
      ],
      "stateMutability": "view",
      "type": "function"
    }
  ],
  "transactionHash": "0x163d1c571ca6a100f82682f8b4b9b08583a05c79f9546ec9c8a3a28a11469944",
  "args": [],
  "numDeployments": 1,
  "solcInputHash": "04a7c421fde759bd36f782b8376391bf",
  "bytecode": "0x608060405234801561001057600080fd5b50600080546001600160a01b03191633179055610b4a806100326000396000f3fe608060405234801561001057600080fd5b50600436106100575760003560e01c80631709b8251461005c578063372c12b1146100715780635fa7b584146100a9578063c2bc2efc146100bc578063f1b2d6a3146100e8575b600080fd5b61006f61006a3660046108fd565b6100fd565b005b61009461007f3660046108db565b60016020526000908152604090205460ff1681565b60405190151581526020015b60405180910390f35b61006f6100b73660046108db565b61030c565b6100946100ca3660046108db565b6001600160a01b031660009081526001602052604090205460ff1690565b6100f061058c565b6040516100a091906109cb565b6000546001600160a01b031633146101545760405162461bcd60e51b8152602060048201526015602482015274596f75277265206e6f7420746865206f776e65722160581b60448201526064015b60405180910390fd5b6001600160a01b03811660009081526001602081905260409091205460ff16151514156101b35760405162461bcd60e51b815260206004820152600d60248201526c546f6b656e204578697374732160981b604482015260640161014b565b6001600160a01b038116600090815260016020818152604092839020805460ff191690921790915581516080601f88018390049092028101820190925260608201868152600292918291908990899081908501838280828437600092019190915250505090825250604080516020601f88018190048102820181019092528681529181019190879087908190840183828082843760009201829052509385525050506001600160a01b03851660209283015283546001810185559381528190208251805193946003029091019261028d9284920190610725565b5060208281015180516102a69260018501920190610725565b5060409182015160029190910180546001600160a01b0319166001600160a01b03928316179055815190831681524260208201527f88e70a3a2c6cbeb128c95d6dd08991b9ec0531fc455fbfc03ef6475ad898c7e7910160405180910390a15050505050565b6000546001600160a01b0316331461035e5760405162461bcd60e51b8152602060048201526015602482015274596f75277265206e6f7420746865206f776e65722160581b604482015260640161014b565b6001600160a01b03811660009081526001602081905260409091205460ff161515146103c05760405162461bcd60e51b8152602060048201526011602482015270546f6b656e206e6f74206c69737465642160781b604482015260640161014b565b6001600160a01b0381166000908152600160205260408120805460ff191690555b60025481101561058857816001600160a01b03166002828154811061040857610408610afe565b60009182526020909120600260039092020101546001600160a01b03161415610576576002805461043b90600190610a65565b8154811061044b5761044b610afe565b90600052602060002090600302016002828154811061046c5761046c610afe565b9060005260206000209060030201600082018160000190805461048e90610a7c565b6104999291906107a9565b5060018201816001019080546104ae90610a7c565b6104b99291906107a9565b5060029182015490820180546001600160a01b0319166001600160a01b039092169190911790558054806104ef576104ef610ae8565b6000828152602081206000199092019160038302019061050f8282610824565b61051d600183016000610824565b5060020180546001600160a01b03191690559055604080516001600160a01b03841681524260208201527f23729033fa9d9802cea7b9fa7b1372014ddca030ab25cc785b71a17ab65f7151910160405180910390a15050565b8061058081610ab7565b9150506103e1565b5050565b60606002805480602002602001604051908101604052809291908181526020016000905b8282101561071c57838290600052602060002090600302016040518060600160405290816000820180546105e390610a7c565b80601f016020809104026020016040519081016040528092919081815260200182805461060f90610a7c565b801561065c5780601f106106315761010080835404028352916020019161065c565b820191906000526020600020905b81548152906001019060200180831161063f57829003601f168201915b5050505050815260200160018201805461067590610a7c565b80601f01602080910402602001604051908101604052809291908181526020018280546106a190610a7c565b80156106ee5780601f106106c3576101008083540402835291602001916106ee565b820191906000526020600020905b8154815290600101906020018083116106d157829003601f168201915b5050509183525050600291909101546001600160a01b031660209182015290825260019290920191016105b0565b50505050905090565b82805461073190610a7c565b90600052602060002090601f0160209004810192826107535760008555610799565b82601f1061076c57805160ff1916838001178555610799565b82800160010185558215610799579182015b8281111561079957825182559160200191906001019061077e565b506107a5929150610861565b5090565b8280546107b590610a7c565b90600052602060002090601f0160209004810192826107d75760008555610799565b82601f106107e85780548555610799565b8280016001018555821561079957600052602060002091601f016020900482015b82811115610799578254825591600101919060010190610809565b50805461083090610a7c565b6000825580601f10610840575050565b601f01602090049060005260206000209081019061085e9190610861565b50565b5b808211156107a55760008155600101610862565b80356001600160a01b038116811461088d57600080fd5b919050565b60008083601f8401126108a457600080fd5b50813567ffffffffffffffff8111156108bc57600080fd5b6020830191508360208285010111156108d457600080fd5b9250929050565b6000602082840312156108ed57600080fd5b6108f682610876565b9392505050565b60008060008060006060868803121561091557600080fd5b853567ffffffffffffffff8082111561092d57600080fd5b61093989838a01610892565b9097509550602088013591508082111561095257600080fd5b5061095f88828901610892565b9094509250610972905060408701610876565b90509295509295909350565b6000815180845260005b818110156109a457602081850181015186830182015201610988565b818111156109b6576000602083870101525b50601f01601f19169290920160200192915050565b60006020808301818452808551808352604092508286019150828160051b87010184880160005b83811015610a5757603f19898403018552815160608151818652610a188287018261097e565b915050888201518582038a870152610a30828261097e565b928901516001600160a01b03169589019590955250948701949250908601906001016109f2565b509098975050505050505050565b600082821015610a7757610a77610ad2565b500390565b600181811c90821680610a9057607f821691505b60208210811415610ab157634e487b7160e01b600052602260045260246000fd5b50919050565b6000600019821415610acb57610acb610ad2565b5060010190565b634e487b7160e01b600052601160045260246000fd5b634e487b7160e01b600052603160045260246000fd5b634e487b7160e01b600052603260045260246000fdfea264697066735822122042acf7eb0c40d9b61b1aa35a1a426beaf0c04944bafbbd41066c808956d9992664736f6c63430008070033",
  "devdoc": {
    "kind": "dev",
    "methods": {
      "getListings()": {
        "details": "Function to get all whitelisted tokens.",
        "returns": {
          "_0": "Array of token objects"
        }
      }
    },
    "version": 1
  },
  "userdoc": {
    "kind": "user",
    "methods": {},
    "version": 1
  },
  "storageLayout": {
    "storage": [
      {
        "astId": 3,
        "contract": "contracts/WhiteList.sol:WhiteList",
        "label": "owner",
        "offset": 0,
        "slot": "0",
        "type": "t_address_payable"
      },
      {
        "astId": 7,
        "contract": "contracts/WhiteList.sol:WhiteList",
        "label": "whiteList",
        "offset": 0,
        "slot": "1",
        "type": "t_mapping(t_address,t_bool)"
      },
      {
        "astId": 54,
        "contract": "contracts/WhiteList.sol:WhiteList",
        "label": "tokenList",
        "offset": 0,
        "slot": "2",
        "type": "t_array(t_struct(Token)50_storage)dyn_storage"
      }
    ],
    "types": {
      "t_address": {
        "encoding": "inplace",
        "label": "address",
        "numberOfBytes": "20"
      },
      "t_address_payable": {
        "encoding": "inplace",
        "label": "address payable",
        "numberOfBytes": "20"
      },
      "t_array(t_struct(Token)50_storage)dyn_storage": {
        "base": "t_struct(Token)50_storage",
        "encoding": "dynamic_array",
        "label": "struct WhiteList.Token[]",
        "numberOfBytes": "32"
      },
      "t_bool": {
        "encoding": "inplace",
        "label": "bool",
        "numberOfBytes": "1"
      },
      "t_mapping(t_address,t_bool)": {
        "encoding": "mapping",
        "key": "t_address",
        "label": "mapping(address => bool)",
        "numberOfBytes": "32",
        "value": "t_bool"
      },
      "t_string_storage": {
        "encoding": "bytes",
        "label": "string",
        "numberOfBytes": "32"
      },
      "t_struct(Token)50_storage": {
        "encoding": "inplace",
        "label": "struct WhiteList.Token",
        "members": [
          {
            "astId": 45,
            "contract": "contracts/WhiteList.sol:WhiteList",
            "label": "name",
            "offset": 0,
            "slot": "0",
            "type": "t_string_storage"
          },
          {
            "astId": 47,
            "contract": "contracts/WhiteList.sol:WhiteList",
            "label": "symbol",
            "offset": 0,
            "slot": "1",
            "type": "t_string_storage"
          },
          {
            "astId": 49,
            "contract": "contracts/WhiteList.sol:WhiteList",
            "label": "tokenAddress",
            "offset": 0,
            "slot": "2",
            "type": "t_address"
          }
        ],
        "numberOfBytes": "96"
      }
    }
  }
}